:020000040800F2
:1000000000500020450600089D050008A3050008D3
:10001000A9050008AF050008B505000800000000AC
:10002000000000000000000000000000BB05000808
:10003000C705000800000000D3050008DF05000820
:100040008D0600088D0600088D0600088D06000844
:100050008D0600088D0600088D0600088D06000834
:100060008D0600088D0600088D0600088D06000824
:100070008D0600088D0600088D0600088D06000814
:100080008D0600088D0600088D0600088D06000804
:100090008D0600088D0600088D0600088D060008F4
:1000A0008D0600088D0600088D0600088D060008E4
:1000B0008D0600088D0600088D0600088D060008D4
:1000C0008D060008ED050008010600088D060008F1
:1000D0008D0600088D060008150600088D0600082C
:1000E000290600088D0600088D06000800000000A3
:1000F0000000000000000000000000000000000000
:0C01000000000000000000005FF808F1A3
:10010C0010B5054C237833B9044B13B10448AFF345
:10011C0000800123237010BD0C00002000000000A3
:10012C00543E000808B5034B1BB103490348AFF319
:10013C00008008BD0000000010000020543E0008A4
:10014C0080B582B000AF7860396001227968386878
:10015C0003F036F90346002B01D1002300E0012304
:10016C0018460837BD4680BD80B58EB000AF00F094
:10017C0089FA00F021F800F0B9F800F08DF800F0E1
:10018C005DF80B4A3B1D92E803001860043319809C
:10019C0002330A0C1A7007F10B032B2200211846AC
:1001AC0003F04AFE3B1D03491846FFF7C9FFF9E768
:1001BC006C3E00087C00002080B590B000AF07F1C9
:1001CC00180328220021184603F036FE3B1D00229E
:1001DC001A605A609A60DA601A610223BB610123CB
:1001EC00BB621023FB6202237B630023BB634FF4CF
:1001FC006013FB6307F11803184602F083FC0346F7
:10020C00002B01D000F0F6F80F237B600223BB60BB
:10021C000023FB604FF480633B6100237B613B1D3B
:10022C000221184602F0EEFE0346002B01D000F02E
:10023C00E1F800BF4037BD4680BD000080B500AF7F
:10024C00124B134A1A60114B124A5A600F4B002280
:10025C009A600E4B0022DA600C4B4FF480421A610C
:10026C000A4B00225A61094B00229A61074B00226B
:10027C00DA61064B00221A62044800F0F1FD0346D5
:10028C00002B01D000F0B6F800BF80BD2800002084
:10029C0000580040A086010080B500AF114B124AF7
:1002AC001A60104B4FF4E1325A600E4B00229A60E8
:1002BC000C4B0022DA600B4B00221A61094B0C220A
:1002CC005A61084B00229A61064B0022DA610548FC
:1002DC0003F026F80346002B01D000F08BF800BF8A
:1002EC0080BD00BF7C0000200044004080B588B079
:1002FC0000AF07F1100300221A605A609A60DA60AE
:10030C00384B9B69374A43F010039361354B9B691B
:10031C0003F01003FB60FB68324B9B69314A43F0DE
:10032C00200393612F4B9B6903F02003BB60BB68D8
:10033C002C4B9B692B4A43F004039361294B9B691B
:10034C0003F004037B607B68264B9B69254A43F0D2
:10035C0008039361234B9B6903F008033B603B68E4
:10036C0000226021204800F041FD00224FF4007172
:10037C001E4800F03BFD4FF400533B611C4B7B616E
:10038C000023BB6107F110031946184800F0AAFBC3
:10039C0060233B6101237B610023BB610223FB6172
:1003AC0007F110031946104800F09CFB4FF4007342
:1003BC003B6101237B610023BB610223FB6107F1DD
:1003CC0010031946094800F08DFB0022002128205B
:1003DC0000F091FA282000F0AAFA00BF2037BD46A1
:1003EC0080BD00BF00100240000801400010014019
:1003FC000000111080B400AF72B600BFFEE7000021
:10040C0080B485B000AF154B9B69144A43F00103CF
:10041C009361124B9B6903F00103BB60BB680F4BEC
:10042C00DB690E4A43F08053D3610C4BDB6903F05C
:10043C0080537B607B680A4B5B68FB60FB6823F036
:10044C00E063FB60FB6843F00073FB60044AFB68ED
:10045C00536000BF1437BD4680BC7047001002408B
:10046C000000014080B588B000AF786007F1100340
:10047C0000221A605A609A60DA607B681B681E4A18
:10048C00934234D11D4B9B691C4A43F00803936182
:10049C001A4B9B6903F00803FB60FB684FF4406345
:1004AC003B6112237B610323FB6107F110031946A7
:1004BC00134800F017FB114BDB69104A43F480031F
:1004CC00D3610E4BDB6903F48003BB60BB68002275
:1004DC000021212000F00FFA212000F028FA002240
:1004EC000021222000F007FA222000F020FA00BFA1
:1004FC002037BD4680BD00BF0058004000100240B0
:10050C00000C014080B588B000AF786007F1100393
:10051C0000221A605A609A60DA607B681B68194A7C
:10052C0093422BD1184BDB69174A43F40033D36148
:10053C00154BDB6903F40033FB60FB68124B9B69C2
:10054C00114A43F0040393610F4B9B6903F00403BE
:10055C00BB60BB680C233B6102237B610223FB6104
:10056C0007F110031946094800F0BCFA00220021DB
:10057C00262000F0C0F9262000F0D9F900BF203762
:10058C00BD4680BD00440040001002400008014000
:10059C0080B400AFFEE780B400AFFEE780B400AFDC
:1005AC00FEE780B400AFFEE780B400AFFEE780B496
:1005BC0000AF00BFBD4680BC704780B400AF00BF29
:1005CC00BD4680BC704780B400AF00BFBD4680BC48
:1005DC00704780B500AF00F09BF800BF80BD0000F5
:1005EC0080B500AF024800F093FD00BF80BD00BF96
:1005FC002800002080B500AF024800F0FAFE00BFD2
:10060C0080BD00BF2800002080B500AF024802F07A
:10061C000DFF00BF80BD00BF7C00002080B500AF87
:10062C004FF4005000F0FAFB00BF80BD80B400AF67
:10063C0000BFBD4680BC7047FFF7F8FF0B480C4964
:10064C000C4A002302E0D458C4500433C4188C4222
:10065C00F9D3094A094C002301E013600432A24289
:10066C00FBD303F0C5FBFFF77FFD704700000020B4
:10067C000C000020D43E00080C000020C800002014
:10068C00FEE7000080B500AF084B1B68074A43F03B
:10069C0010031360032000F023F9002000F008F889
:1006AC00FFF7AEFE0023184680BD00BF00200240BD
:1006BC0080B582B000AF7860124B1A68124B1B7871
:1006CC0019464FF47A73B3FBF1F3B2FBF3F318460C
:1006DC0000F03BF90346002B01D001230EE07B68B0
:1006EC000F2B0AD8002279684FF0FF3000F003F985
:1006FC00064A7B681360002300E001231846083784
:10070C00BD4680BD00000020080000200400002031
:10071C0080B400AF054B1B781A46054B1B6813447D
:10072C00034A136000BFBD4680BC70470800002020
:10073C00C400002080B400AF024B1B681846BD46B5
:10074C0080BC7047C400002080B485B000AF7860D6
:10075C007B6803F00703FB600C4BDB68BB60BA687B
:10076C004FF6FF031340BB60FB681A02BB681343D0
:10077C0043F0BF6343F40033BB60044ABB68D360EF
:10078C0000BF1437BD4680BC704700BF00ED00E0D1
:10079C0080B400AF044BDB681B0A03F00703184658
:1007AC00BD4680BC704700BF00ED00E080B483B054
:1007BC0000AF0346FB7197F90730002B0BDBFB797D
:1007CC0003F01F02064997F907305B09012000FA74
:1007DC0002F241F8232000BF0C37BD4680BC7047A5
:1007EC0000E100E080B483B000AF03463960FB71D8
:1007FC0097F90730002B0ADB3B68DAB20C4997F902
:10080C0007301201D2B20B4483F800230AE03B6894
:10081C00DAB20849FB7903F00F03043B1201D2B2A0
:10082C000B441A7600BF0C37BD4680BC704700BF26
:10083C0000E100E000ED00E080B489B000AFF860AA
:10084C00B9607A60FB6803F00703FB61FB69C3F1D5
:10085C000703042B28BF0423BB61FB690433062B5D
:10086C0002D9FB69033B00E000237B614FF0FF32B0
:10087C00BB6902FA03F3DA43BB681A407B699A40FE
:10088C004FF0FF317B6901FA03F3D9437B680B40CE
:10089C00134318462437BD4680BC704780B582B0E0
:1008AC0000AF78607B68013BB3F1807F01D30123FB
:1008BC000FE00A4A7B68013B53600F214FF0FF3079
:1008CC00FFF790FF054B00229A60044B07221A6039
:1008DC00002318460837BD4680BD00BF10E000E07D
:1008EC0080B582B000AF78607868FFF72DFF00BF4D
:1008FC000837BD4680BD80B586B000AF0346B960F1
:10090C007A60FB7300237B61FFF742FF78617A68A2
:10091C00B9687869FFF790FF024697F90F301146D6
:10092C001846FFF75FFF00BF1837BD4680BD80B586
:10093C0082B000AF0346FB7197F907301846FFF7FA
:10094C0035FF00BF0837BD4680BD80B582B000AF13
:10095C0078607868FFF7A2FF034618460837BD4653
:10096C0080BD80B485B000AF78600023FB737B68DA
:10097C0093F82130DBB2022B08D07B6804229A63F7
:10098C007B68002283F82020012320E07B681B6811
:10099C001A687B681B6822F00E021A607B681B6861
:1009AC001A687B681B6822F001021A607B681A6C5B
:1009BC007B68DB6B012101FA02F25A607B68012231
:1009CC0083F821207B68002283F82020FB7B1846CB
:1009DC001437BD4680BC704780B584B000AF7860DA
:1009EC000023FB737B6893F82130DBB2022B05D01C
:1009FC007B6804229A630123FB7351E07B681B68BC
:100A0C001A687B681B6822F00E021A607B681B68F0
:100A1C001A687B681B6822F001021A607B681B68ED
:100A2C00224A934229D07B681B68214A934222D0E8
:100A3C007B681B681F4A93421AD07B681B681E4A4E
:100A4C00934212D07B681B681C4A93420AD07B6885
:100A5C001B681B4A934202D14FF480130EE04FF0F7
:100A6C0080730BE04FF4803308E04FF4805305E0C3
:100A7C004FF4807302E0102300E00123114A53600D
:100A8C007B68012283F821207B68002283F82020D8
:100A9C007B685B6B002B03D07B685B6B786898473B
:100AAC00FB7B18461037BD4680BD00BF08000240D6
:100ABC001C0002403000024044000240580002403A
:100ACC006C0002400000024080B483B000AF78603C
:100ADC007B6893F82130DBB218460C37BD4680BCDE
:100AEC007047000080B48BB000AF78603960002391
:100AFC007B6200233B6269E101227B6A02FA03F309
:100B0C00FB613B681B68FA691340BB61BA69FB69FE
:100B1C009A4240F058813B685B689A4A93425ED097
:100B2C00984A934275D8984A934258D0964A934221
:100B3C006FD8964A934252D0944A934269D8944AB9
:100B4C0093424CD0924A934263D8924A934246D0F5
:100B5C00904A93425DD8122B2AD8122B59D801A255
:100B6C0052F823F0EB0B0008C50B0008D70B00085C
:100B7C00190C00081F0C00081F0C00081F0C0008A3
:100B8C001F0C00081F0C00081F0C00081F0C00088D
:100B9C001F0C00081F0C00081F0C00081F0C00087D
:100BAC001F0C00081F0C0008CD0B0008E10B0008FF
:100BBC00794A934213D02CE03B68DB683B6229E016
:100BCC003B68DB6804333B6224E03B68DB6808333A
:100BDC003B621FE03B68DB680C333B621AE03B680E
:100BEC009B68002B02D104233B6213E03B689B689B
:100BFC00012B05D108233B627B68FA691A6109E075
:100C0C0008233B627B68FA695A6103E000233B626C
:100C1C0000E000BFBB69FF2B01D87B6801E07B685B
:100C2C0004337B61BB69FF2B02D87B6A9B0002E01B
:100C3C007B6A083B9B003B617B691A680F213B690F
:100C4C0001FA03F3DB431A40396A3B6901FA03F3F7
:100C5C001A437B691A603B685B6803F08053002B76
:100C6C0000F0B1804D4B9B694C4A43F001039361FA
:100C7C004A4B9B6903F00103BB60BB68484A7B6A23
:100C8C009B08023352F82330FB607B6A03F00303AA
:100C9C009B000F2202FA03F3DB43FA681340FB605C
:100CAC007B68404A934213D07B683F4A93420DD0F5
:100CBC007B683E4A934207D07B683D4A934201D100
:100CCC00032306E0042304E0022302E0012300E0F6
:100CDC0000237A6A02F0030292009340FA681343ED
:100CEC00FB602F497B6A9B080233FA6841F823208A
:100CFC003B685B6803F48013002B06D02D4B9A687D
:100D0C002C49BB6913438B6006E02A4B9A68BB697C
:100D1C00DB43284913408B603B685B6803F400138A
:100D2C00002B06D0234BDA682249BB691343CB60F6
:100D3C0006E0204BDA68BB69DB431E491340CB60ED
:100D4C003B685B6803F40033002B06D0194B5A68E0
:100D5C001849BB6913434B6006E0164B5A68BB69D4
:100D6C00DB43144913404B603B685B6803F48033EE
:100D7C00002B21D00F4B1A680E49BB6913430B6033
:100D8C0021E000BF000032100000311000002210E2
:100D9C000000211000001210000011100010024081
:100DAC000000014000080140000C0140001001400F
:100DBC0000140140000401400B4B1A68BB69DB4373
:100DCC00094913400B607B6A01337B623B681A68EC
:100DDC007B6A22FA03F3002B7FF48EAE00BF00BFB8
:100DEC002C37BD4680BC70470004014080B483B0F2
:100DFC0000AF78600B467B8013467B707B78002BB2
:100E0C0003D07A887B681A6103E07B881A047B68BC
:100E1C001A6100BF0C37BD4680BC704780B582B0EC
:100E2C0000AF0346FB80084B5A69FB881340002B2C
:100E3C0006D0054AFB885361FB88184600F006F87B
:100E4C0000BF0837BD4680BD0004014080B483B0AC
:100E5C0000AF0346FB8000BF0C37BD4680BC70471B
:100E6C0080B584B000AF78607B68002B01D1012382
:100E7C002BE17B6893F83D30DBB2002B06D17B680D
:100E8C00002283F83C207868FFF7ECFA7B68242278
:100E9C0083F83D207B681B681A687B681B6822F00E
:100EAC0001021A607B681B681A687B681B6842F435
:100EBC0000421A607B681B681A687B681B6822F406
:100ECC0000421A6002F0E6F9F8607B685B68814AC0
:100EDC00934207D8FB68804A934294BF01230023B6
:100EEC00DBB206E0FB687D4A934294BF01230023EA
:100EFC00DBB2002B01D00123E7E0FB68784AA2FBB0
:100F0C0003239B0CBB607B681B685B6823F03F0171
:100F1C007B681B68BA680A435A607B681B681B6A4B
:100F2C0023F03F017B685B686A4A934202D8BB6836
:100F3C00013309E0BB684FF4967202FB03F3694A74
:100F4C00A2FB03239B0901337A6812680B431362DB
:100F5C007B681B68DB6923F44F4222F0FF027B683D
:100F6C005B685C498B4219D8FB68591E7B685B68CF
:100F7C005B00B1FBF3F3591C40F6FC730B40002BE8
:100F8C000AD0FB68591E7B685B685B00B1FBF3F30E
:100F9C000133C3F30B0351E004234FE07B689B68E0
:100FAC00002B11D1FB68581E7B6859680B465B00FF
:100FBC000B44B0FBF3F30133C3F30B03002B0CBF57
:100FCC0001230023DBB212E0FB68581E7B685968D2
:100FDC000B469B000B4499000B44B0FBF3F301331D
:100FEC00C3F30B03002B0CBF01230023DBB2002B3C
:100FFC0001D0012322E07B689B68002B0ED1FB689B
:10100C00581E7B6859680B465B000B44B0FBF3F32E
:10101C000133C3F30B0343F400430FE0FB68581E8A
:10102C007B6859680B469B000B4499000B44B0FB42
:10103C00F3F30133C3F30B0343F4404379680968BA
:10104C001343CB617B681B681B6823F0C0017B6872
:10105C00DA697B681B6A1A437B681B680A431A604F
:10106C007B681B689B6823F4034323F0FF037A68B7
:10107C0011697A68D26811437A6812680B439360DD
:10108C007B681B68DB6823F0FF017B685A697B680F
:10109C009B691A437B681B680A43DA607B681B6890
:1010AC001A687B681B6842F001021A607B68002298
:1010BC001A647B68202283F83D207B6800221A6327
:1010CC007B68002283F83E20002318461037BD466B
:1010DC0080BD00BFA08601007F841E00FF083D007C
:1010EC0083DE1B43D34D621080B483B000AF7860B5
:1010FC007B681B685B6903F08003802B03D17B68E2
:10110C001B6800221A6100BF0C37BD4680BC7047BB
:10111C0080B588B000AF78600023BB617B681B682A
:10112C005B687B617B68DB6A3B617B6893F83E3074
:10113C00FB737B6893F83D30BB73FB7B102B03D0A8
:10114C00FB7B402B40F0C1807B681B689B69BB61BB
:10115C007B681B685B69FB61FB6903F00103002B77
:10116C000DD13B69B3F52A0F03D03B69B3F12A4F7C
:10117C0001D1012300E00023012B00F03281FB6937
:10118C0003F00103002B0CD07B695B0A03F0010315
:10119C00002B06D0786801F09BFC786800F099FD74
:1011AC0092E0FB69DB0803F00103002B09D07B699B
:1011BC005B0A03F00103002B03D0786800F00EFEED
:1011CC0082E0FB695B0803F00103002B09D07B690B
:1011DC005B0A03F00103002B03D0786800F027FEB4
:1011EC0072E0BB699B0803F00103002B3BD07B68CA
:1011FC001B685B6803F40063B3F5006F00F0F380C9
:10120C00FB69DB0903F00103002B0FD07B699B0A00
:10121C0003F00103002B09D0FB699B0803F00103C9
:10122C00002B03D1786800F0F1F94DE0FB699B08C5
:10123C0003F00103002B00F0D6807B695B0A03F0FE
:10124C000103002B00F0CF80BB7B212B03D17868EE
:10125C0000F078FAC7E0FB7B402B40F0C480786844
:10126C0000F0E6FABFE07B681B685B6803F4006380
:10127C00B3F5006F00F0B780FB699B0903F0010325
:10128C00002B0FD07B699B0A03F00103002B09D0C4
:10129C00FB699B0803F00103002B03D1786800F075
:1012AC005FFB11E0FB699B0803F00103002B00F0CE
:1012BC009A807B695B0A03F00103002B00F093809A
:1012CC00786800F015FC8EE08DE07B681B6C002BC1
:1012DC0004D07B681B685B69FB6107E07B681B685B
:1012EC009B69BB617B681B685B69FB61FB695B0885
:1012FC0003F00103002B12D07B695B0A03F001039E
:10130C00002B0CD07B681B6C002B03D07B681B68FC
:10131C009B69BB61B969786800F0E0FF66E0FB6926
:10132C001B0903F00103002B09D07B695B0A03F056
:10133C000103002B03D0786801F01AF856E0BB7B50
:10134C00212B02D0BB7B292B25D1FB69DB0903F0B8
:10135C000103002B0FD07B699B0A03F00103002BC8
:10136C0009D0FB699B0803F00103002B03D17868BB
:10137C0000F0F8FE39E0FB699B0803F00103002B39
:10138C0033D07B695B0A03F00103002B2DD0786806
:10139C0000F025FF29E0FB699B0903F00103002BFA
:1013AC000FD07B699B0A03F00103002B09D0FB696A
:1013BC009B0803F00103002B03D1786800F02FFF8A
:1013CC0014E0FB699B0803F00103002B0ED07B6932
:1013DC005B0A03F00103002B08D0786800F05DFF76
:1013EC0004E000BF02E000BF00E000BF2037BD46B4
:1013FC0080BD80B58AB000AF78607B681B685B6984
:10140C003B627B681B685B68FB6100237B627B68CB
:10141C0093F83E30FB763B6A1B0A03F00103002B6A
:10142C0016D0FB691B0A03F00103002B10D07B6A5A
:10143C0043F001037B627B681B686FF480725A6116
:10144C007B681B681A687B681B6842F400421A6050
:10145C003B6A5B0A03F00103002B0ED0FB691B0AED
:10146C0003F00103002B08D07B6A43F002037B627C
:10147C007B681B686FF400725A613B6A9B0A03F02D
:10148C000103002B3FD0FB691B0A03F00103002B67
:10149C0039D0FB7EBB767B685B8D9BB27B617B68B6
:1014AC0093F83D30FB747B681B6BFB60BB7E202B81
:1014BC0012D17B69002B0FD1FB7C212B08D0FB7C3C
:1014CC00292B05D0FB7C282B06D1FB68212B03D1C3
:1014DC00786801F07DF816E07B681B686FF4806219
:1014EC005A617B6A43F004037B62FB7E102B02D0B3
:1014FC00FB7E402B07D17B681B681A687B681B68D6
:10150C0042F400721A603B6ADB0A03F00103002B01
:10151C000ED0FB691B0A03F00103002B08D07B6A79
:10152C0043F008037B627B681B686FF400625A61AE
:10153C007B6A002B08D07B681A6C7B6A1A437B6829
:10154C001A64786801F0B8F800BF2837BD4680BD32
:10155C0080B483B000AF786000BF0C37BD4680BC50
:10156C00704780B483B000AF786000BF0C37BD46C5
:10157C0080BC704780B483B000AF786000BF0C377C
:10158C00BD4680BC704780B483B000AF786000BFAC
:10159C000C37BD4680BC704780B483B000AF786018
:1015AC000B46FB7013463B8000BF0C37BD4680BC1E
:1015BC00704780B483B000AF786000BF0C37BD4675
:1015CC0080BC704780B483B000AF786000BF0C372C
:1015DC00BD4680BC704780B483B000AF786000BF5C
:1015EC000C37BD4680BC704780B483B000AF7860C8
:1015FC0000BF0C37BD4680BC704780B483B000AFD1
:10160C00786000BF0C37BD4680BC704780B584B095
:10161C0000AF78607B6893F83D30FB737B6893F880
:10162C003E30BB737B68DB6ABB607B681B8D002B19
:10163C0050D1FB7B212B4DD1BB68082B1DD0BB6837
:10164C00202B1AD0BB6813F5803F16D07B681B6823
:10165C005A687B681B6822F4E0625A607B6811222E
:10166C001A637B68002283F83E207B68202283F873
:10167C003D207868FFF76CFF60E07B681B685A6858
:10168C007B681B6822F4E0625A607B681B681A68EE
:10169C007B681B6842F400721A607B6800221A6334
:1016AC007B68202283F83D207B6893F83E30DBB2C8
:1016BC00402B07D17B68002283F83E207868FFF727
:1016CC0081FF3BE07B68002283F83E207868FFF7BF
:1016DC003FFF33E0FB7B212B05D0BB7B402B2DD177
:1016EC00FB7B222B2AD17B685B8D9BB2002B08D114
:1016FC007B681B685A687B681B6822F480625A609E
:10170C001CE07B6893F83E30DBB2402B03D1786849
:10171C0000F08EF812E07B685B6A1A787B681B68B5
:10172C001A617B685B6A5A1C7B685A627B685B8DAA
:10173C009BB2013B9AB27B685A85FFE700BF10371A
:10174C00BD4680BD80B584B000AF78607B68DB6A35
:10175C00FB607B6893F83D30DBB2212B64D17B6856
:10176C005B8D9BB2002B12D07B685B6A1A787B680E
:10177C001B681A617B685B6A5A1C7B685A627B68BF
:10178C005B8D9BB2013B9AB27B685A854CE0FB683F
:10179C00082B1DD0FB68202B1AD0FB6813F5803F5B
:1017AC0016D07B681B685A687B681B6822F4E06261
:1017BC005A607B6811221A637B68002283F83E20F2
:1017CC007B68202283F83D207868FFF7C1FE2BE070
:1017DC007B681B685A687B681B6822F4E0625A605D
:1017EC007B681B681A687B681B6842F400721A607D
:1017FC007B6800221A637B68202283F83D207B687B
:10180C0093F83E30DBB2402B07D17B68002283F883
:10181C003E207868FFF7D6FE06E07B68002283F84E
:10182C003E207868FFF794FE00BF1037BD4680BDA0
:10183C0080B584B000AF78607B6893F83D30FB7363
:10184C007B681B6D002B1DD17B68DB6C012B0BD1D6
:10185C007B689B6CDAB27B681B681A617B681B6DBA
:10186C009A1C7B681A6577E07B689B6C9BB21B1299
:10187C00DAB27B681B681A617B681B6D5A1C7B682B
:10188C001A6569E07B681B6D012B0BD17B689B6C27
:10189C00DAB27B681B681A617B681B6D5A1C7B680B
:1018AC001A6559E07B681B6D022B52D1FB7B222BF6
:1018BC000DD17B681B681A687B681B6842F48072C8
:1018CC001A607B681B6D5A1C7B681A6544E07B6848
:1018DC005B8D9BB2002B15D0FB7B212B12D17B682F
:1018EC005B6A1A787B681B681A617B685B6A5A1C96
:1018FC007B685A627B685B8D9BB2013B9AB27B68BA
:10190C005A8529E07B685B8D9BB2002B24D1FB7B35
:10191C00212B21D17B681B685A687B681B6822F4D9
:10192C00E0625A607B681B681A687B681B6842F42B
:10193C0000721A607B6800221A637B68202283F88D
:10194C003D207B68002283F83E207868FFF73AFE42
:10195C0002E07868FFF7C8FB00BF1037BD4680BDBA
:10196C0080B584B000AF78607B6893F83D30DBB213
:10197C00222B40F0B9807B68DB6AFB607B685B8D57
:10198C009BB2BB60BB68032B21D97B681B681A69AF
:10199C007B685B6AD2B21A707B685B6A5A1C7B6884
:1019AC005A627B685B8D9BB2013B9AB27B685A850D
:1019BC007B685B8D9BB2032B40F096807B681B6829
:1019CC005A687B681B6822F480625A608CE07B68E2
:1019DC00DB6A022B7FD0BB68012B02D0BB68002BCB
:1019EC0079D1786801F042F80346002B4CD17B6822
:1019FC001B681A687B681B6822F480621A607B681B
:101A0C001B685A687B681B6822F4E0625A607B682A
:101A1C001B681A697B685B6AD2B21A707B685B6A56
:101A2C005A1C7B685A627B685B8D9BB2013B9AB2F5
:101A3C007B685A857B68202283F83D207B6893F86D
:101A4C003E30DBB2402B0AD17B68002283F83E206B
:101A5C007B6800221A637868FFF7BDFD44E07B6861
:101A6C00002283F83E20FB68082B02D0FB68202B59
:101A7C0003D17B6800221A6302E07B6812221A638E
:101A8C007868FFF76EFD2FE07B681B685A687B68EF
:101A9C001B6822F4E0625A607B681B681A697B68D9
:101AAC005B6AD2B21A707B685B6A5A1C7B685A629A
:101ABC007B685B8D9BB2013B9AB27B685A857B68D5
:101ACC00202283F83D207B68002283F83E20786832
:101ADC00FFF78AFD08E07B681B685A687B681B6807
:101AEC0022F480625A60FFE700BF1037BD4680BD0C
:101AFC0080B584B000AF78607B68DB6AFB607B6884
:101B0C005B8D9BB2042B1BD17B681B685A687B686E
:101B1C001B6822F480625A607B681B681A697B68B8
:101B2C005B6AD2B21A707B685B6A5A1C7B685A6219
:101B3C007B685B8D9BB2013B9AB27B685A85C4E093
:101B4C007B685B8D9BB2032B29D17B681B685A6821
:101B5C007B681B6822F480625A60FB68042B0AD0F5
:101B6C00FB68022B07D07B681B681A687B681B68B4
:101B7C0022F480621A607B681B681A697B685B6A56
:101B8C00D2B21A707B685B6A5A1C7B685A627B689B
:101B9C005B8D9BB2013B9AB27B685A8595E07B6862
:101BAC005B8D9BB2022B7DD1FB68012B02D0FB68B5
:101BBC00102B08D17B681B681A687B681B6822F4A1
:101BCC0080621A6016E0FB68042B02D0FB68022BC3
:101BDC0008D17B681B681A687B681B6842F48062BA
:101BEC001A6007E07B681B681A687B681B6842F404
:101BFC0000721A607B681B681A697B685B6AD2B2D8
:101C0C001A707B685B6A5A1C7B685A627B685B8DB6
:101C1C009BB2013B9AB27B685A857B681B681A6938
:101C2C007B685B6AD2B21A707B685B6A5A1C7B68F1
:101C3C005A627B685B8D9BB2013B9AB27B685A857A
:101C4C007B681B685A687B681B6822F440725A6078
:101C5C007B68202283F83D207B6893F83E30DBB212
:101C6C00402B0AD17B68002283F83E207B6800223F
:101C7C001A637868FFF7AFFC27E07B68002283F8D3
:101C8C003E20FB68082B02D0FB68202B03D17B681D
:101C9C0000221A6302E07B6812221A637868FFF74D
:101CAC0060FC12E07B681B681A697B685B6AD2B2C5
:101CBC001A707B685B6A5A1C7B685A627B685B8D06
:101CCC009BB2013B9AB27B685A8500BF1037BD4668
:101CDC0080BD80B483B000AF78607B6893F83E30F1
:101CEC00DBB2402B17D17B681B6D002B09D17B68B5
:101CFC005B6CDBB21A467B681B6802F0FE021A6151
:101D0C0067E07B685B6CDBB243F00103DAB27B68A3
:101D1C001B681A615DE07B681B69B3F5804F33D19A
:101D2C007B6893F83D30DBB2212B09D17B685B6C6F
:101D3C00DBB21A467B681B6802F0FE021A6108E0EF
:101D4C007B685B6CDBB243F00103DAB27B681B6827
:101D5C001A617B685B6B002B04D07B685B6B9B6AA6
:101D6C00002B08D17B689B6B002B32D07B689B6B64
:101D7C009B6A002B2DD07B681B685A687B681B689C
:101D8C0042F400625A6024E07B681B6D002B0ED17C
:101D9C007B685B6C9BB2DB11DBB203F00603DBB23E
:101DAC0063F00F03DAB27B681B681A6111E07B6881
:101DBC001B6D012B0DD17B685B6C9BB2DB11DBB215
:101DCC0003F00603DBB263F00E03DAB27B681B6828
:101DDC001A6100BF0C37BD4680BC704780B483B01D
:101DEC0000AF78607B685B6CDAB27B681B681A6149
:101DFC007B685B6B002B04D07B685B6B9B6A002B56
:101E0C0008D17B689B6B002B0CD07B689B6B9B6A0F
:101E1C00002B07D07B681B685A687B681B6842F4F0
:101E2C0000625A6000BF0C37BD4680BC704780B45E
:101E3C0091B000AF78607B6893F83E3087F83F3004
:101E4C007B68DB6ABB637B681B6B7B637B6893F88B
:101E5C003D30DBB2222B40F074817B681B6D002B74
:101E6C000FD197F83F30402B0BD100233B637B689D
:101E7C001B685B693B637B681B689B693B633B6BC3
:101E8C006BE17B681B6D002B1DD17B681B69B3F567
:101E9C00404F18D10023FB627B681B685B69FB62B7
:101EAC007B681B689B69FB62FB6A7B681B681A6812
:101EBC007B681B6842F480721A607B681B6D5A1C2D
:101ECC007B681A6549E17B685B8D9BB2002B13D153
:101EDC000023BB627B681B685B69BB627B681B6809
:101EEC009B69BB62BB6A7B681B681A687B681B6852
:101EFC0042F400721A6020E17B685B8D9BB2012B6F
:101F0C0040F08A80BB6B13F5803F37D17B681B6830
:101F1C001A687B681B6822F480621A607B681B68F5
:101F2C005B6803F40063B3F5006F13D17B681B6827
:101F3C001A687B681B6822F480621A6000237B623B
:101F4C007B681B685B697B627B681B689B697B6237
:101F5C007B6AF2E000233B627B681B685B693B6237
:101F6C007B681B689B693B623B6A7B681B681A68D1
:101F7C007B681B6842F400721A60DEE0BB6B082BB6
:101F8C002ED0BB6B202B2BD07B6B122B02D1BB6BBF
:101F9C00012B25D1BB6B042B0ED0BB6B022B0BD0B2
:101FAC00BB6B102B08D07B681B681A687B681B689E
:101FBC0022F480621A6007E07B681B681A687B68F1
:101FCC001B6842F480621A600023FB617B681B680B
:101FDC005B69FB617B681B689B69FB61FB69ACE01F
:101FEC007B681B681A687B681B6822F480621A6025
:101FFC000023BB617B681B685B69BB617B681B68EA
:10200C009B69BB61BB697B681B681A687B681B6832
:10201C0042F400721A6090E07B685B8D9BB2022BDD
:10202C0058D1BB6B042B21D0BB6B022B1ED0BB6BCE
:10203C00102B1BD07B681B681A687B681B6842F4EA
:10204C0000621A6000237B617B681B685B697B61A3
:10205C007B681B689B697B617B697B681B681A6862
:10206C007B681B6822F480621A6012E07B681B6834
:10207C001A687B681B6842F480621A6000233B611B
:10208C007B681B685B693B617B681B689B693B6178
:10209C003B697B681B685B6803F40063B3F5006FF6
:1020AC004BD1BB6B13F5803F0BD0BB6B012B08D016
:1020BC00BB6B082B05D0BB6B102B02D0BB6B202B42
:1020CC003BD17B681B685A687B681B6842F4805262
:1020DC005A6032E07B681B681A687B681B6842F4A4
:1020EC0080621A607B681B685B6803F40063B3F55D
:1020FC00006F17D1BB6B13F5803F0BD0BB6B012B63
:10210C0008D0BB6B082B05D0BB6B102B02D0BB6B64
:10211C00202B07D17B681B685A687B681B6842F4CC
:10212C0080525A600023FB607B681B685B69FB6014
:10213C007B681B689B69FB60FB687B6800221A65E7
:10214C000BE00023BB607B681B685B69BB607B6832
:10215C001B689B69BB60BB68FFE700BF4437BD468B
:10216C0080BC704780B584B000AF78607B6893F812
:10217C003D30FB737B685B8D9BB2002B2BD07B6857
:10218C005B6A1A787B681B681A617B685B6A5A1CED
:10219C007B685A627B685B8D9BB2013B9AB27B6811
:1021AC005A857B685B8D9BB2002B14D1FB7B292B52
:1021BC0011D17B681B685A687B681B6822F48062AB
:1021CC005A607B6821221A637B68282283F83D20A1
:1021DC007868FFF7CFF900BF1037BD4680BD80B4DB
:1021EC0083B000AF78607B685B8D9BB2002B11D005
:1021FC007B685B6A1A787B681B681A617B685B6A10
:10220C005A1C7B685A627B685B8D9BB2013B9AB20D
:10221C007B685A8500BF0C37BD4680BC704780B5C3
:10222C0084B000AF78607B6893F83D30FB737B68BB
:10223C005B8D9BB2002B2CD07B681B681A697B686A
:10224C005B6AD2B21A707B685B6A5A1C7B685A62F2
:10225C007B685B8D9BB2013B9AB27B685A857B682D
:10226C005B8D9BB2002B14D1FB7B2A2B11D17B688D
:10227C001B685A687B681B6822F480625A607B6812
:10228C0022221A637B68282283F83D207868FFF7A6
:10229C007AF900BF1037BD4680BD80B483B000AF63
:1022AC0078607B685B8D9BB2002B12D07B681B68BF
:1022BC001A697B685B6AD2B21A707B685B6A5A1CBB
:1022CC007B685A627B685B8D9BB2013B9AB27B68E0
:1022DC005A8500BF0C37BD4680BC704780B584B0B2
:1022EC0000AF786039600023FB737B6893F83D3056
:1022FC00DBB203F02803282B27D17B681B685A68B4
:10230C007B681B6822F480625A603B689B0803F070
:10231C000103002B01D10123FB733B68DB0903F0A4
:10232C000103002B03D17B68DB68BB8102E07B6877
:10233C009B69BB817B68002283F83C20BA89FB7BBC
:10234C0019467868FFF728F90EE00023BB607B681C
:10235C001B685B69BB607B681B689B69BB60BB6867
:10236C007B68002283F83C2000BF1037BD4680BD3F
:10237C0080B584B000AF78607B6893F83D30FB7318
:10238C007B681B685A687B681B6822F4E0625A60A1
:10239C000023BB607B681B685B69BB607B681B6848
:1023AC001A687B681B6842F001021A60BB687B6884
:1023BC001B681A687B681B6822F480621A607B6851
:1023CC001B685B6803F40063B3F5006F72D1FB7B91
:1023DC00222B02D0FB7B2A2B35D17B689B6B1B6895
:1023EC005B689AB27B685A857B685B8D9BB2002BCD
:1023FC0005D07B681B6C43F004027B681A647B6815
:10240C001B685A687B681B6822F400625A607B6800
:10241C009B6B1846FEF758FB0346012B49D07B6893
:10242C009B6B694A5A637B689B6B1846FEF7D4FA20
:10243C000346002B3DD07B689B6B5B6B7A68926B81
:10244C001046984735E07B685B6B1B685B689AB2FB
:10245C007B685A857B685B8D9BB2002B05D07B68B3
:10246C001B6C43F004027B681A647B681B685A6817
:10247C007B681B6822F400625A607B685B6B1846B1
:10248C00FEF722FB0346012B14D07B685B6B4E4A94
:10249C005A637B685B6B1846FEF79EFA0346002B6B
:1024AC0008D07B685B6B5B6B7A68526B1046984705
:1024BC0000E000BF7B685B8D9BB2002B3ED07B683D
:1024CC001B685B6903F00403042B12D17B681B6847
:1024DC001A697B685B6AD2B21A707B685B6A5A1C99
:1024EC007B685A627B685B8D9BB2013B9AB27B68BE
:1024FC005A857B681B685B6903F04003402B12D143
:10250C007B681B681A697B685B6AD2B21A707B683D
:10251C005B6A5A1C7B685A627B685B8D9BB2013B81
:10252C009AB27B685A857B685B8D9BB2002B05D079
:10253C007B681B6C43F004027B681A647B681B6C21
:10254C00002B03D0786800F0B7F839E0FB7B2A2B1E
:10255C0009D17B6800221A637B68282283F83D200E
:10256C007868FFF710F87B6893F83D30DBB2282BC6
:10257C0011D17B68154ADA627B6800221A637B688A
:10258C00202283F83D207B68002283F83E20786867
:10259C00FFF70FF814E07B681B6B222B02D0FB7B40
:1025AC00222B0DD17B6800221A637B68202283F8D2
:1025BC003D207B68002283F83E207868FEF7E3FF1D
:1025CC0000BF1037BD4680BD292900080000FFFF61
:1025DC0080B584B000AF78607B6893F83D30FB73B6
:1025EC007B68DB6ABB60BB68082B02D0BB68202B06
:1025FC0029D1FB7B282B26D17B682E4ADA627B689B
:10260C001B685A687B681B6822F4E0625A607B681E
:10261C001B686FF480625A617B681B681A687B6860
:10262C001B6822F480621A607B6800221A637B6844
:10263C00202283F83D207B68002283F83E207868B6
:10264C00FEF7B7FF31E0FB7B212B29D17B68194AC0
:10265C00DA627B6821221A637B68202283F83D2092
:10266C007B68002283F83E207B681B685A687B6875
:10267C001B6822F4E0625A607B681B686FF480620E
:10268C005A617B681B681A687B681B6822F480623D
:10269C001A607868FEF728FD7868FEF76BFF04E097
:1026AC007B681B686FF480625A6100BF1037BD46AF
:1026BC0080BD00BF0000FFFF80B584B000AF786024
:1026CC007B6893F83D30FB737B6893F83E30BB73AB
:1026DC00BB7B102B02D0BB7B402B0AD1FB7B222B6C
:1026EC0007D17B681B681A687B681B6822F4006240
:1026FC001A60FB7B03F02803282B07D17B68002290
:10270C001A637B68282283F83D2015E07B681B68E0
:10271C005B6803F40063B3F5006F0AD0FB7B602B9E
:10272C0007D07B68202283F83D207B68002283F849
:10273C003E207B6800221A637B681B685B6803F48D
:10274C000063B3F5006F62D17B681B685A687B68C5
:10275C001B6822F400625A607B685B6B93F8213033
:10276C00DBB2012B20D07B685B6B6A4A5A637B68B7
:10277C005B6B1846FEF730F90346002B00F089809E
:10278C007B681B681A687B681B6822F001021A6060
:10279C007B68202283F83D207B685B6B5B6B7A68DF
:1027AC00526B1046984774E07B689B6B594A5A638E
:1027BC007B689B6B1846FEF70FF90346002B68D01D
:1027CC007B681B685B6903F04003402B0BD17B6873
:1027DC001B681A697B685B6AD2B21A707B685B6A89
:1027EC005A1C7B685A627B681B681A687B681B687A
:1027FC0022F001021A607B68202283F83D207B685E
:10280C009B6B5B6B7A68926B1046984741E07B68D8
:10281C0093F83D30DBB2602B25D17B68202283F806
:10282C003D207B6800221A647B681B685B6903F09F
:10283C004003402B0BD17B681B681A697B685B6A71
:10284C00D2B21A707B685B6A5A1C7B685A627B68CE
:10285C001B681A687B681B6822F001021A60786892
:10286C00FEF7CBFE15E07B681B685B6903F0400349
:10287C00402B0BD17B681B681A697B685B6AD2B2F0
:10288C001A707B685B6A5A1C7B685A627868FEF720
:10289C00ABFE7B681B6CBB60BB6803F00103002BB9
:1028AC000ED1BB6803F00203002B09D1BB6803F007
:1028BC000403002B04D1BB6803F00803002B07D0E2
:1028CC007B681B685A687B681B6822F4E0625A605C
:1028DC007B6893F83D30FB737B681B6C03F004033F
:1028EC00042B13D1FB7B282B10D17B680A4ADA62AC
:1028FC007B6800221A637B68202283F83D207B686A
:10290C00002283F83E207868FEF753FE00BF103794
:10291C00BD4680BD292900080000FFFF80B586B0A8
:10292C0000AF78600023FB607B685B6A7B617B692E
:10293C0093F83D30FB744B4B1B68DB084A4AA2FBF7
:10294C0003231A0A13469B001344DA00D31AFB60C4
:10295C00FB68002B06D17B691B6C43F020027B6962
:10296C001A640AE0FB68013BFB607B691B681B680F
:10297C0003F40073B3F5007FEAD07B695B6B002B2B
:10298C0003D07B695B6B00229A627B699B6B002B8B
:10299C0003D07B699B6B00229A627B691B681A6867
:1029AC007B691B6822F480621A607B6900225A855D
:1029BC007B695B6B002B03D07B695B6B00225A63DA
:1029CC007B699B6B002B03D07B699B6B00225A634A
:1029DC007B691B681A687B691B6822F001021A600C
:1029EC007B6993F83D30DBB2602B0ED17B692022E2
:1029FC0083F83D207B69002283F83E207B6900220E
:102A0C001A647869FEF7F9FD27E0FB7C03F02803D4
:102A1C00282B17D17B691B681A687B691B6842F0ED
:102A2C0001021A607B691B681A687B691B6842F497
:102A3C0080621A607B6900221A637B69282283F802
:102A4C003D2007E07B69202283F83D207B69002232
:102A5C0083F83E207869FEF7C7FD00BF1837BD46E6
:102A6C0080BD00BF0000002089B5F81480B485B08B
:102A7C0000AF78600023FB60134B1B68DB08134A24
:102A8C00A2FB03231A0A13469B001344FB60FB684A
:102A9C00013BFB60FB68002B07D17B681B6C43F090
:102AAC0020027B681A64012308E07B681B681B68A2
:102ABC0003F40073B3F5007FE9D0002318461437F4
:102ACC00BD4680BC704700BF0000002089B5F814DB
:102ADC0080B483B000AF78607B68DB6AB3F52A0FF3
:102AEC0003D17B680122DA6207E07B68DB6AB3F111
:102AFC002A4F02D17B680822DA6200BF0C37BD4630
:102B0C0080BC704780B586B000AF78607B68002BC6
:102B1C0001D101236CE27B681B6803F00103002BDD
:102B2C0000F08780924B5B6803F00C03042B0CD0F5
:102B3C008F4B5B6803F00C03082B12D18C4B5B683A
:102B4C0003F48033B3F5803F0BD1894B1B6803F43E
:102B5C000033002B6CD07B685B68002B68D10123A1
:102B6C0046E27B685B68B3F5803F06D1804B1B68FF
:102B7C007F4A43F4803313602EE07B685B68002B44
:102B8C000CD17B4B1B687A4A23F480331360784B4F
:102B9C001B68774A23F4802313601DE07B685B6815
:102BAC00B3F5A02F0CD1724B1B68714A43F48023F0
:102BBC0013606F4B1B686E4A43F4803313600BE059
:102BCC006B4B1B686A4A23F480331360684B1B6899
:102BDC00674A23F4802313607B685B68002B13D057
:102BEC00FDF7A8FD386108E0FDF7A4FD02463B693E
:102BFC00D31A642B01D90323FAE15D4B1B6803F450
:102C0C000033002BF0D014E0FDF794FD386108E0A0
:102C1C00FDF790FD02463B69D31A642B01D90323BF
:102C2C00E6E1534B1B6803F40033002BF0D100E0BA
:102C3C0000BF7B681B6803F00203002B63D04C4B76
:102C4C005B6803F00C03002B0BD0494B5B6803F063
:102C5C000C03082B1CD1464B5B6803F48033002B10
:102C6C0016D1434B1B6803F00203002B05D07B6885
:102C7C001B69012B01D00123BAE13D4B1B6823F0EA
:102C8C00F8027B685B69DB00394913430B603AE05F
:102C9C007B681B69002B20D0364B01221A60FDF794
:102CAC0049FD386108E0FDF745FD02463B69D31A42
:102CBC00022B01D903239BE12D4B1B6803F002036C
:102CCC00002BF0D02A4B1B6823F0F8027B685B6961
:102CDC00DB00274913430B6015E0264B00221A60DA
:102CEC00FDF728FD386108E0FDF724FD02463B693D
:102CFC00D31A022B01D903237AE11D4B1B6803F075
:102D0C000203002BF0D17B681B6803F00803002B37
:102D1C003AD07B689B69002B19D0174B01221A60A3
:102D2C00FDF708FD386108E0FDF704FD02463B693C
:102D3C00D31A022B01D903235AE10D4B5B6A03F022
:102D4C000203002BF0D0012000F0CCFA1CE00A4B5F
:102D5C0000221A60FDF7EEFC38610FE0FDF7EAFC8B
:102D6C0002463B69D31A022B08D9032340E100BF6A
:102D7C000010024000004242800442429E4B5B6ABB
:102D8C0003F00203002BE9D17B681B6803F00403FA
:102D9C00002B00F0A6800023FB75974BDB6903F03A
:102DAC008053002B0DD1944BDB69934A43F0805335
:102DBC00D361914BDB6903F08053BB60BB6801238B
:102DCC00FB758E4B1B6803F48073002B18D18B4B57
:102DDC001B688A4A43F480731360FDF7ABFC3861BF
:102DEC0008E0FDF7A7FC02463B69D31A642B01D916
:102DFC000323FDE0814B1B6803F48073002BF0D0A0
:102E0C007B68DB68012B06D17B4B1B6A7A4A43F04B
:102E1C00010313622DE07B68DB68002B0CD1764B31
:102E2C001B6A754A23F001031362734B1B6A724AC7
:102E3C0023F0040313621CE07B68DB68052B0CD1C8
:102E4C006D4B1B6A6C4A43F0040313626A4B1B6A9A
:102E5C00694A43F0010313620BE0674B1B6A664A35
:102E6C0023F001031362644B1B6A634A23F00403CF
:102E7C0013627B68DB68002B15D0FDF75BFC3861B7
:102E8C000AE0FDF757FC02463B69D31A41F288323F
:102E9C00934201D90323ABE0574B1B6A03F00203A7
:102EAC00002BEED014E0FDF745FC38610AE0FDF78D
:102EBC0041FC02463B69D31A41F28832934201D954
:102ECC00032395E04C4B1B6A03F00203002BEED15D
:102EDC00FB7D012B05D1484BDB69474A23F080531E
:102EEC00D3617B68DB69002B00F08180424B5B680F
:102EFC0003F00C03082B61D07B68DB69022B46D1F5
:102F0C003F4B00221A60FDF715FC386108E0FDF715
:102F1C0011FC02463B69D31A022B01D9032367E04B
:102F2C00354B1B6803F00073002BF0D17B681B6AD8
:102F3C00B3F5803F08D1304B5B6823F400327B68DB
:102F4C009B682D4913434B602B4B5B6823F4741225
:102F5C007B68196A7B685B6A0B43274913434B6098
:102F6C00274B01221A60FDF7E5FB386108E0FDF7FD
:102F7C00E1FB02463B69D31A022B01D9032337E04C
:102F8C001D4B1B6803F00073002BF0D02FE01C4B83
:102F9C0000221A60FDF7CEFB386108E0FDF7CAFB92
:102FAC0002463B69D31A022B01D9032320E0124BB2
:102FBC001B6803F00073002BF0D118E07B68DB6911
:102FCC00012B01D1012313E00B4B5B68FB60FB6809
:102FDC0003F480327B681B6A9A4206D1FB6803F4C7
:102FEC0070127B685B6A9A4201D0012300E00023D7
:102FFC0018461837BD4680BD0010024000700040D6
:10300C006000424280B584B000AF786039607B6864
:10301C00002B01D10123D0E06A4B1B6803F007039E
:10302C003A689A4210D9674B1B6823F0070265492E
:10303C003B6813430B60634B1B6803F007033A6850
:10304C009A4201D00123B8E07B681B6803F00203AD
:10305C00002B20D07B681B6803F00403002B05D0E9
:10306C00594B5B68584A43F4E06353607B681B68B8
:10307C0003F00803002B05D0534B5B68524A43F412
:10308C0060535360504B5B6823F0F0027B689B6885
:10309C004D4913434B607B681B6803F00103002B05
:1030AC0040D07B685B68012B07D1474B1B6803F44E
:1030BC000033002B15D101237FE07B685B68022B6A
:1030CC0007D1414B1B6803F00073002B09D101237E
:1030DC0073E03D4B1B6803F00203002B01D101236D
:1030EC006BE0394B5B6823F003027B685B68364905
:1030FC0013434B60FDF71EFBF8600AE0FDF71AFB6B
:10310C000246FB68D31A41F28832934201D9032359
:10311C0053E02D4B5B6803F00C027B685B689B00F3
:10312C009A42EBD1274B1B6803F007033A689A428B
:10313C0010D2244B1B6823F0070222493B6813432F
:10314C000B60204B1B6803F007033A689A4201D0CE
:10315C00012332E07B681B6803F00403002B08D0CA
:10316C00194B5B6823F4E0627B68DB6816491343F8
:10317C004B607B681B6803F00803002B09D0124BD3
:10318C005B6823F460527B681B69DB000E491343B8
:10319C004B6000F021F802460B4B5B681B0903F0F7
:1031AC000F030A49CB5C22FA03F3094A1360094B5B
:1031BC001B681846FDF77CFA002318461037BD46ED
:1031CC0080BD00BF0020024000100240A03E00085D
:1031DC00000000200400002080B487B000AF002362
:1031EC00FB600023BB6000237B6100237B6000231A
:1031FC003B611E4B5B68FB60FB6803F00C03042B0C
:10320C0002D0082B03D027E0194B3B6127E0FB6869
:10321C009B0C03F00F03174AD35C7B60FB6803F431
:10322C008033002B10D0114B5B685B0C03F0010357
:10323C00114AD35CBB607B680D4A02FB03F2BB688E
:10324C00B2FBF3F37B6104E07B680C4A02FB03F3F3
:10325C007B617B693B6102E0054B3B6100BF3B69D5
:10326C0018461C37BD4680BC704700BF001002409A
:10327C0000127A00B83E0008C83E000800093D0064
:10328C0080B400AF024B1B681846BD4680BC70472B
:10329C000000002080B500AFFFF7F2FF0246054B9F
:1032AC005B681B0A03F007030349CB5C22FA03F3A8
:1032BC00184680BD00100240B03E000880B500AF3B
:1032CC00FFF7DEFF0246054B5B68DB0A03F00703E2
:1032DC000349CB5C22FA03F3184680BD0010024070
:1032EC00B03E000880B485B000AF78600A4B1B6814
:1032FC000A4AA2FB03235B0A7A6802FB03F3FB6016
:10330C0000BFFB685A1EFA60002BF9D100BF00BF4A
:10331C001437BD4680BC704700000020D34D6210AE
:10332C0080B582B000AF78607B68002B01D101239F
:10333C0042E07B6893F84130DBB2002B06D17B680E
:10334C00002283F840207868FDF7DCF87B682422A3
:10335C0083F841207B681B68DA687B681B6822F461
:10336C000052DA60786800F0B5FC7B681B681A695B
:10337C007B681B6822F490421A617B681B685A694F
:10338C007B681B6822F02A025A617B681B68DA682A
:10339C007B681B6842F40052DA607B6800225A6436
:1033AC007B68202283F841207B68202283F842200E
:1033BC007B6800225A63002318460837BD4680BD3F
:1033CC0080B485B000AFF860B9601346FB80FB6831
:1033DC0093F84130DBB2202B21D1BB68002B02D0FB
:1033EC00FB88002B01D101231AE0FB68BA681A6232
:1033FC00FB68FA889A84FB68FA88DA84FB680022F6
:10340C005A64FB68212283F84120FB681B68DA6848
:10341C00FB681B6842F08002DA60002300E00223A4
:10342C0018461437BD4680BC7047000080B5BAB052
:10343C0000AF78607B681B681B68C7F8E4307B685A
:10344C001B68DB68C7F8E0307B681B685B69C7F8F2
:10345C00DC300023C7F8D8300023C7F8D430D7F8B5
:10346C00E43003F00F03C7F8D830D7F8D830002B6E
:10347C000FD1D7F8E43003F02003002B09D0D7F894
:10348C00E03003F02003002B03D0786800F063FBDE
:10349C005BE2D7F8D830002B00F0DE80D7F8DC30B8
:1034AC0003F00103002B06D1D7F8E03003F490733E
:1034BC00002B00F0D180D7F8E43003F00103002B8F
:1034CC000BD0D7F8E03003F48073002B05D07B6869
:1034DC005B6C43F001027B685A64D7F8E43003F06C
:1034EC000403002B0BD0D7F8DC3003F00103002BC6
:1034FC0005D07B685B6C43F002027B685A64D7F89A
:10350C00E43003F00203002B0BD0D7F8DC3003F0CF
:10351C000103002B05D07B685B6C43F004027B68D5
:10352C005A64D7F8E43003F00803002B11D0D7F815
:10353C00E03003F02003002B05D1D7F8DC3003F08A
:10354C000103002B05D07B685B6C43F008027B68A1
:10355C005A647B685B6C002B00F0F281D7F8E43086
:10356C0003F02003002B08D0D7F8E03003F0200341
:10357C00002B02D0786800F0EEFA7B681B685B6960
:10358C0003F04003002B14BF01230023DBB2C7F868
:10359C00D4307B685B6C03F00803002B03D1D7F8A5
:1035AC00D430002B4FD0786800F0F8F97B681B689A
:1035BC005B6903F04003002B41D07B681B6814331C
:1035CC00C7F89C30D7F89C3053E8003FC7F89830C8
:1035DC00D7F8983023F04003C7F8D0307B681B68CD
:1035EC001433D7F8D020C7F8A820C7F8A430D7F8E0
:1035FC00A410D7F8A82041E80023C7F8A030D7F8CA
:10360C00A030002BD9D17B68DB6B002B13D07B68EF
:10361C00DB6B7E4A5A637B68DB6B1846FDF7DCF983
:10362C000346002B16D07B68DB6B5B6B7A68D26B26
:10363C00104698470EE0786800F09CF90AE078682C
:10364C0000F098F906E0786800F094F97B680022A5
:10365C005A6475E100BF73E17B681B6B012B40F072
:10366C004F81D7F8E43003F01003002B00F04881B1
:10367C00D7F8E03003F01003002B00F04181002359
:10368C00BB607B681B681B68BB607B681B685B68E6
:10369C00BB60BB687B681B685B6903F04003002B55
:1036AC0000F0B6807B68DB6B1B685B68A7F8BE30EC
:1036BC00B7F8BE30002B00F045817B689B8DB7F8C6
:1036CC00BE209A4280F03E817B68B7F8BE20DA8536
:1036DC007B68DB6B9B69202B00F088807B681B6808
:1036EC000C33C7F88830D7F8883053E8003FC7F858
:1036FC008430D7F8843023F48073C7F8B8307B68F3
:10370C001B680C33D7F8B820C7F89420C7F8903052
:10371C00D7F89010D7F8942041E80023C7F88C30E4
:10372C00D7F88C30002BD9D17B681B6814337B679E
:10373C007B6F53E8003F3B673B6F23F00103C7F8F7
:10374C00B4307B681B681433D7F8B420C7F88020DA
:10375C00FB67F96FD7F8802041E80023BB67BB6F8C
:10376C00002BE1D17B681B6814333B663B6E53E83E
:10377C00003FFB65FB6D23F04003C7F8B0307B685E
:10378C001B681433D7F8B020FA66BB66B96EFA6EB4
:10379C0041E800237B667B6E002BE3D17B68202203
:1037AC0083F842207B6800221A637B681B680C3309
:1037BC00FB64FB6C53E8003FBB64BB6C23F0100351
:1037CC00C7F8AC307B681B680C33D7F8AC20BA65F3
:1037DC007B65796DBA6D41E800233B653B6D002B31
:1037EC00E3D17B68DB6B1846FDF7BBF87B680222E4
:1037FC005A637B689A8D7B68DB8D9BB2D31A9BB224
:10380C001946786800F0BFF89CE000BF6D3A0008DC
:10381C007B689A8D7B68DB8D9BB2D31AA7F8CE3070
:10382C007B68DB8D9BB2002B00F08E80B7F8CE301E
:10383C00002B00F089807B681B680C33BB63BB6B6F
:10384C0053E8003F7B637B6B23F49073C7F8C8305D
:10385C007B681B680C33D7F8C8207A643B64396CDE
:10386C007A6C41E80023FB63FB6B002BE3D17B6894
:10387C001B6814337B627B6A53E8003F3B623B6AF4
:10388C0023F00103C7F8C4307B681B681433D7F8E6
:10389C00C4203A63FB62F96A3A6B41E80023BB62CD
:1038AC00BB6A002BE3D17B68202283F842207B6823
:1038BC0000221A637B681B680C333B613B6953E83D
:1038CC00003FFB60FB6823F01003C7F8C0307B6837
:1038DC001B680C33D7F8C020FA61BB61B969FA696F
:1038EC0041E800237B617B69002BE3D17B680222DA
:1038FC005A63B7F8CE301946786800F044F823E0E4
:10390C00D7F8E43003F08003002B09D0D7F8E0306F
:10391C0003F08003002B03D0786800F0B5F814E0B6
:10392C00D7F8E43003F04003002B0ED0D7F8E0308A
:10393C0003F04003002B08D0786800F0F4F804E0A2
:10394C0000BF02E000BF00E000BFE837BD4680BD0D
:10395C0080B483B000AF786000BF0C37BD4680BC2C
:10396C00704780B483B000AF786000BF0C37BD46A1
:10397C0080BC704780B483B000AF786000BF0C3758
:10398C00BD4680BC704780B483B000AF78600B46F6
:10399C007B8000BF0C37BD4680BC704780B495B0AF
:1039AC0000AF78607B681B680C337B637B6B53E8E0
:1039BC00003F3B633B6B23F49073FB647B681B6899
:1039CC000C33FA6C3A64FB63F96B3A6C41E80023F4
:1039DC00BB63BB6B002BE5D17B681B6814333B626C
:1039EC003B6A53E8003FFB61FB6923F00103BB64B6
:1039FC007B681B681433BA6CFA62BB62B96AFA6AE8
:103A0C0041E800237B627B6A002BE5D17B681B6B52
:103A1C00012B19D17B681B680C33FB60FB6853E8E6
:103A2C00003FBB60BB6823F010037B647B681B68A2
:103A3C000C337A6CBA617B617969BA6941E800230D
:103A4C003B613B69002BE5D17B68202283F8422047
:103A5C007B6800221A6300BF5437BD4680BC704798
:103A6C0080B584B000AF78607B685B6AFB60FB68F4
:103A7C000022DA85FB680022DA84F868FFF77AFF07
:103A8C0000BF1037BD4680BD80B485B000AF7860F4
:103A9C007B6893F84130DBB2212B3ED17B689B686D
:103AAC00B3F5805F14D17B681B69002B10D17B6848
:103ABC001B6AFB60FB681B881A467B681B68C2F399
:103ACC0008025A607B681B6A9A1C7B681A6208E0C1
:103ADC007B681B6A591C7A6811621A787B681B68B0
:103AEC005A607B68DB8C9BB2013B9BB27A681946AF
:103AFC00D184002B0FD17B681B68DA687B681B684C
:103B0C0022F08002DA607B681B68DA687B681B68CD
:103B1C0042F04002DA60002300E00223184614371A
:103B2C00BD4680BC704780B582B000AF78607B68C2
:103B3C001B68DA687B681B6822F04002DA607B68DD
:103B4C00202283F841207868FFF702FF00231846F3
:103B5C000837BD4680BD80B58CB000AF78607B68FF
:103B6C0093F84230DBB2222B40F0AE807B689B682E
:103B7C00B3F5805F17D17B681B69002B13D1002331
:103B8C00FB627B689B6ABB627B681B685B689BB251
:103B9C00C3F308039AB2BB6A1A807B689B6A9A1CAF
:103BAC007B689A6226E07B689B6AFB620023BB629F
:103BBC007B689B68B3F5805F07D07B689B68002BA4
:103BCC000AD17B681B69002B06D17B681B685B687C
:103BDC00DAB2FB6A1A7008E07B681B685B68DBB2C0
:103BEC0003F07F03DAB2FB6A1A707B689B6A5A1C7B
:103BFC007B689A627B68DB8D9BB2013B9BB27A68D7
:103C0C001946D185002B5DD17B681B68DA687B680F
:103C1C001B6822F02002DA607B681B68DA687B681C
:103C2C001B6822F48072DA607B681B685A697B68B7
:103C3C001B6822F001025A617B68202283F8422023
:103C4C007B6800225A637B681B6B012B35D17B6828
:103C5C0000221A637B681B680C337B617B6953E819
:103C6C00003F3B613B6923F010037B627B681B6860
:103C7C000C337A6A3A62FB61F9693A6A41E80023CB
:103C8C00BB61BB69002BE5D17B681B681B6803F02B
:103C9C001003102B0AD10023FB607B681B681B6888
:103CAC00FB607B681B685B68FB60FB687B689B8DBB
:103CBC0019467868FFF767FE02E07868FFF751FE57
:103CCC00002302E0002300E0022318463037BD46F3
:103CDC0080BD000080B584B000AF78607B681B6845
:103CEC001B6923F440517B68DA687B681B680A43C4
:103CFC001A617B689A687B681B691A437B685B69ED
:103D0C001343BB607B681B68DB6823F4B05323F060
:103D1C000C037A681268B9680B43D3607B681B6824
:103D2C005B6923F440717B689A697B681B680A4362
:103D3C005A617B681B682C4A934203D1FFF7BEFA89
:103D4C00F86002E0FFF7A6FAF860FA6813469B00E9
:103D5C0013449A001A447B685B689B00B2FBF3F334
:103D6C00224AA2FB03235B091901FA6813469B0044
:103D7C0013449A001A447B685B689B00B2FBF3F215
:103D8C001A4BA3FB02035B09642000FB03F3D31A59
:103D9C001B013233154AA2FB03235B0903F0F0032A
:103DAC001944FA6813469B0013449A001A447B6822
:103DBC005B689B00B2FBF3F20C4BA3FB02035B09A9
:103DCC00642000FB03F3D31A1B013233074AA2FB16
:103DDC0003235B0903F00F027B681B680A449A609B
:103DEC0000BF1037BD4680BD003801401F85EB5128
:103DFC0070B500260C4D0D4C641BA410A64209D1C5
:103E0C0000F022F800260A4D0A4C641BA410A642AE
:103E1C0005D170BD55F8043B98470136EEE755F8CF
:103E2C00043B98470136F2E7CC3E0008CC3E000834
:103E3C00CC3E0008D03E000803460244934200D119
:103E4C00704703F8011BF9E7F8B500BFF8BC08BCD4
:103E5C009E467047F8B500BFF8BC08BC9E4670473C
:103E6C00425255480A0D00000000000000000000FE
:103E7C000000000000000000000000000000000036
:103E8C000000000000000000000000000000000026
:103E9C00000000000000000000000000010203040C
:103EAC0006070809000000000102030402030405D0
:103EBC00060708090A0B0C0D0E0F1010010200006A
:043ECC0031010008B8
:043ED0000D010008D8
:0C3ED40000127A00100000000100000045
:0400000508000645A4
:00000001FF
